:020000040800F2
:1000000080120020851000088D470008711000083C
:100010007110000871100008711000080000000045
:100020000000000000000000000000007111000846
:1000300071100008000000000D110008052A0008DA
:10004000D9120008D9120008D9120008D9120008E4
:10005000D9120008D9120008D9120008D9120008D4
:10006000D9120008D9120008D9120008D9120008C4
:10007000D9120008D9120008D9120008D9120008B4
:10008000D9120008D9120008D9120008D9120008A4
:10009000D9120008D9120008D9120008D912000894
:1000A000D9120008D9120008D9120008D912000884
:1000B000D9120008D9120008D9120008D912000874
:1000C000D9120008D9120008D9120008D912000864
:1000D000D9120008D9120008D9120008D912000854
:1000E000D9120008D9120008D9120008D912000844
:1000F000D9120008D9120008D9120008D912000834
:10010000D9120008D9120008D9120008D912000823
:10011000D9120008D9120008D9120008D912000813
:10012000D9120008D9120008D9120008D912000803
:08013000D9120008D9120008E1
:1001380080F0004002E000BF81F0004142001FBF94
:100148005FEA410392EA030F7FEA226C7FEA236C9D
:100158006AD04FEA1262D2EB1363C1BFD218414092
:1001680048404140B8BF5B42192B88BF704710F028
:10017800004F40F4000020F07F4018BF404211F0CB
:10018800004F41F4000121F07F4118BF494292EA33
:10019800030F3FD0A2F1010241FA03FC10EB0C005F
:1001A800C3F1200301FA03F100F0004302D54942EC
:1001B80060EB4000B0F5000F13D3B0F1807F06D399
:1001C80040084FEA310102F10102FE2A51D2B1F191
:1001D800004F40EBC25008BF20F0010040EA030086
:1001E8007047490040EB0000013A28BFB0F5000F06
:1001F800EDD2B0FA80FCACF1080CB2EB0C0200FABC
:100208000CF0AABF00EBC25052421843BCBFD0400A
:100218001843704792F0000F81F4000106BF80F484
:1002280000000132013BB5E74FEA41037FEA226C47
:1002380018BF7FEA236C21D092EA030F04D092F012
:10024800000F08BF0846704790EA010F1CBF002046
:10025800704712F07F4F04D1400028BF40F00040A3
:10026800704712F100723CBF00F50000704700F0C3
:10027800004343F0FE4040F4000070477FEA2262EA
:1002880016BF08467FEA23630146420206BF5FEABB
:10029800412390EA010F40F4800070474FF00003BB
:1002A80004E000BF10F0004348BF40425FEA000C82
:1002B80008BF704743F0964301464FF000001CE02A
:1002C80050EA010208BF70474FF000030AE000BF80
:1002D80050EA010208BF704711F0004302D54042BE
:1002E80061EB41015FEA010C02BF84460146002030
:1002F80043F0B64308BFA3F18053A3F50003BCFA4B
:100308008CF2083AA3EBC25310DB01FA02FC6344F7
:1003180000FA02FCC2F12002BCF1004F20FA02F2FE
:1003280043EB020008BF20F00100704702F12002F1
:1003380001FA02FCC2F1200250EA4C0021FA02F252
:1003480043EB020008BF20EADC7070474FF0FF0C57
:100358001CEAD0521EBF1CEAD15392EA0C0F93EA52
:100368000C0F6FD01A4480EA010C400218BF5FEAF4
:1003780041211ED04FF0006343EA501043EA511167
:10038800A0FB01310CF00040B1F5000F3EBF490061
:1003980041EAD3715B0040EA010062F17F02FD2A65
:1003A8001DD8B3F1004F40EBC25008BF20F0010048
:1003B800704790F0000F0CF0004C08BF49024CEA5F
:1003C800502040EA51207F3AC2BFD2F1FF0340EAF1
:1003D800C250704740F400004FF00003013A5DDC62
:1003E80012F1190FDCBF00F000407047C2F10002A3
:1003F800410021FA02F1C2F1200200FA02FC5FEA90
:10040800310040F1000053EA4C0308BF20EADC70D9
:10041800704792F0000F00F0004C02BF400010F44B
:10042800000F013AF9D040EA0C0093F0000F01F0F8
:10043800004C02BF490011F4000F013BF9D041EA1A
:100448000C018FE70CEAD15392EA0C0F18BF93EA1C
:100458000C0F0AD030F0004C18BF31F0004CD8D146
:1004680080EA010000F00040704790F0000F17BFCD
:1004780090F0004F084691F0000F91F0004F14D013
:1004880092EA0C0F01D142020FD193EA0C0F03D16B
:100498004B0218BF084608D180EA010000F000406E
:1004A80040F0FE4040F40000704740F0FE4040F449
:1004B800400070474FF0FF0C1CEAD0521EBF1CEAE8
:1004C800D15392EA0C0F93EA0C0F69D0A2EB030206
:1004D80080EA010C49024FEA402037D04FF08053A0
:1004E80043EA111143EA10130CF000408B4238BF65
:1004F8005B0042F17D024FF4000C8B4224BF5B1A73
:1005080040EA0C00B3EB510F24BFA3EB510340EAC0
:100518005C00B3EB910F24BFA3EB910340EA9C006E
:10052800B3EBD10F24BFA3EBD10340EADC001B01DE
:1005380018BF5FEA1C1CE0D1FD2A3FF650AF8B4282
:1005480040EBC25008BF20F0010070470CF0004C8F
:100558004CEA50207F32C2BFD2F1FF0340EAC250BA
:10056800704740F400004FF00003013A37E792F07B
:10057800000F00F0004C02BF400010F4000F013AD9
:10058800F9D040EA0C0093F0000F01F0004C02BFD4
:10059800490011F4000F013BF9D041EA0C0195E73D
:1005A8000CEAD15392EA0C0F08D142027FF47DAFD6
:1005B80093EA0C0F7FF470AF084676E793EA0C0FC6
:1005C80004D14B023FF44CAF08466EE730F0004CC4
:1005D80018BF31F0004CCAD130F000427FF45CAF54
:1005E80031F000437FF43CAF5FE700BF4FF0FF3CC2
:1005F80006E000BF4FF0010C02E000BF4FF0010C15
:100608004DF804CD4FEA40024FEA41037FEA226CDD
:1006180018BF7FEA236C11D001B052EA530C18BFFF
:1006280090EA010F58BFB2EB030088BFC81738BF64
:100638006FEAE17018BF40F0010070477FEA226C52
:1006480002D15FEA402C05D17FEA236CE4D15FEA4E
:10065800412CE1D05DF8040B704700BF8446084682
:100668006146FFE70FB5FFF7C9FF002848BF10F143
:10067800000F0FBD4DF808EDFFF7F4FF0CBF012088
:1006880000205DF808FB00BF4DF808EDFFF7EAFF12
:1006980034BF012000205DF808FB00BF4DF808EDCD
:1006A800FFF7E0FF94BF012000205DF808FB00BFC2
:1006B8004DF808EDFFF7D2FF94BF012000205DF848
:1006C80008FB00BF4DF808EDFFF7C8FF34BF012055
:1006D80000205DF808FB00BF4FEA4002B2F1FE4F70
:1006E8000FD34FF09E03B3EB12620DD94FEA0023EC
:1006F80043F0004310F0004F23FA02F018BF4042C5
:1007080070474FF00000704712F1610F01D14202AB
:1007180005D110F0004008BF6FF0004070474FF05F
:10072800000070477BB972B90029BEBF00204FF0A6
:10073800004106E008BF00281CBF6FF000414FF0E1
:10074800FF3000F057B8ADF1080C6DE904CE002970
:1007580009DB002B1ADB00F062F8DDF804E0DDE9C4
:10076800022304B07047404261EB4101002B1BDBC0
:1007780000F055F8DDF804E0DDE9022304B040425A
:1007880061EB4101524263EB43037047524263EB12
:10079800430300F044F8DDF804E0DDE9022304B087
:1007A800404261EB41017047524263EB430300F062
:1007B80036F8DDF804E0DDE9022304B0524263EBC9
:1007C8004303704753B94AB9002908BF00281CBF22
:1007D8004FF0FF314FF0FF3000F00CB8ADF1080CCE
:1007E8006DE904CE00F01BF8DDF804E0DDE9022332
:1007F80004B07047704700BF430803F05533C01A70
:1008080000F03333800800F03330184400EB101048
:100818004FF0013300F00F305843000E70472DE9B8
:10082800F04786468C460846089E15467446194683
:10083800002B40F0C2808542B2FA82F245D94AB113
:10084800C2F1200300FA02FC2EFA03F3954043EAB2
:100858000C0C94404FEA154EA8B2BCFBFEF8230CD2
:100868000EFB18CC08FB00F943EA0C43994528D93C
:10087800EB1808F1FF3704D2994502D9A8F102070D
:100888002B44A3EB0903A4B2B3FBFEFC0EFB1C3301
:100898000CFB00F044EA0344A04214D92C190CF1D3
:1008A800FF3304D2A04202D9ACF102032C44241A2B
:1008B80043EA07401EB1D440002334607360BDE8AA
:1008C800F0874746DDE76346F1E792BB431B01210A
:1008D8004FEA154EAFB2B3FBFEFC200C0EFB1C33E7
:1008E8000CFB07F840EA0343984562D9EB180CF172
:1008F800FF3004D2984502D9ACF102002B44A3EB97
:100908000803A4B2B3FBFEFC0EFB1C330CFB07F779
:1009180044EA0344A7424ED92C190CF1FF3304D200
:10092800A74202D9ACF102032C44E41B43EA00407D
:10093800C0E7C2F1200320FA03F1954090402EFA57
:1009480003F303434FEA154EAFB2B1FBFEFC0EFBB7
:100958001C10190C0CFB07F841EA0041884504FA01
:1009680002F422D969180CF1FF3004D2884502D963
:10097800ACF102002944A1EB08019BB2B1FBFEFCDB
:100988000EFB1C110CFB07F743EA01439F420ED9EB
:10099800EB180CF1FF3104D29F4202D9ACF10201ED
:1009A8002B44DB1B41EA004192E76046E3E76146DE
:1009B800F7E76046A3E76346B7E7834206D916B967
:1009C800002108467BE7C6E900E0F9E7B3FA83F7B8
:1009D8008FB9834201D3724508D8BEEB020460EB9D
:1009E800030301209C461EB9002168E73846FAE750
:1009F800C6E9004CF8E7C7F1200CBB4022FA0CF41A
:100A08001C432EFA0CF120FA0CF3B84001434FEACC
:100A180014490EFA07F5B3FBF9F81FFA84FE09FB2F
:100A280018300B0C08FB0EFA43EA00439A4502FA09
:100A380007F240D9E31808F1FF3004D29A4502D9E9
:100A4800A8F102002344A3EB0A0389B2B3FBF9F827
:100A580009FB183308FB0EFE41EA03418E452CD9E9
:100A6800611808F1FF3304D28E4502D9A8F10203B8
:100A7800214443EA0040A0FB0298A1EB0E01414546
:100A8800CE46434602D306D14D4504D2B9EB020EF9
:100A980068EB04030138002EA6D0B5EB0E0261EB1B
:100AA800030101FA0CFC22FA07F34CEA0303F940AC
:100AB800C6E9003198E74046C5E74346D9E7000054
:100AC80010B403460A46034881680C691946234650
:100AD80010BC1847805C000801230A4603FA00F19D
:100AE800074B18690068014218BF82F001021AB169
:100AF8009B68DB68024818479B681B69FAE700BFD8
:100B0800E05B000830B4014606480469856823683C
:100B180001228A4023EA020323602B684FF4003243
:100B280030BC1847E05B00082DE9F04F54495548A0
:100B380089B003F00FFE5448534F04F0D5FD30B987
:100B4800524803F007FE002009B0BDE8F08F384690
:100B580004F0CAFD0028F3D0384604F0C5FD00288B
:100B6800EED00920FFF7CEFF0F20FFF7CBFF0B20B9
:100B7800FFF7C8FF464804F0B7FD08B94548E0E765
:100B880004F007FF0A220023FFF71CFEDFF80081AC
:100B9800DFF80491DFF804A104468B4604F0F9FE5F
:100BA8000A220023FFF70EFE031B61EB0B02B3F5CD
:100BB800FA6F72F1000206460D4636DBD8F80830A7
:100BC8003348DB683C219847002856D102A91B20EE
:100BD800FFF776FF04A904460D20FFF771FF06A969
:100BE80004431020FFF76CFF044344D1079B019393
:100BF800069B009302992A48DDE9042303F0AAFD25
:100C0800029BB3F57A7F16DD01210920FFF764FF07
:100C180021460F20FFF760FF0B202146FFF75CFFFE
:100C2800204803F097FD3446AB4600214FF47A7014
:100C380002F0BCFFB2E7B3F5FA7F21464FF0090096
:100C48000BDAFFF749FF01210F20FFF745FF0B20C3
:100C58002146FFF741FF1448E3E7FFF73DFF214630
:100C68000F20FFF739FFBB6807485B694FF4006145
:100C780098470E48D5E75046D3E74846D1E700BF26
:100C88007062000876620008E05B0008A162000854
:100C9800805C0008CC620008D363000899630008F0
:100CA800EE6200081D630008446300086A630008D8
:100CB800014B1B68184700BFA8000020014B1860B3
:100CC800704700BFA800002030B585B004460D4627
:100CD80010220021684604F088FE02238DF80230B5
:100CE8002A46044B01932146684603F041FA05B0B1
:100CF80030BD00BFB90C000880B505460E46174642
:100D0800984602F071FF034604F0E2FEDFF81890FF
:100D1800044649F80030424630463946A84754F858
:100D2800090000F0C1F900BF08000000034A536839
:100D380023F0020353600020704700BF002004E046
:100D4800084B1A6842F400721A601A6842F480620A
:100D58001A601A6842F480721A60034B034A1A60D8
:100D6800704700BF004000588001002000093D0086
:100D7800014B036000207047905E000830BFFFF70A
:100D8800FDBF00BF2DE9F0410B4EDFF8308006EBC8
:100D98000807CC1B054632460949204604F017FED1
:100DA800A01942460021083C04F01FFE2C6707F1F9
:100DB8000800BDE8F08100BF00000000040000004A
:100DC800845E0008074A936893F90E10002907DB30
:100DD800526993421FBF044A536843F080535360DB
:100DE800704700BFA804002000ED00E070B5204B5C
:100DF80015469A6A12F0100F9A6A14BF112410242B
:100E080012F0080F9A6A18BF1224920706460AD5EC
:100E1800586B9A6A140628D519B19A6A22F080028A
:100E28009A62132401E06FF01500114B9A6A12F0D0
:100E3800010F9A6A18BF1424D10602D49B6A9A0734
:100E48000AD50B4B5B681B0506D5314600F0F6F951
:100E580010B180F309880224054A936A43F0FF031E
:100E6800936200232B70204670BD6FF01500D8E701
:100E780000ED00E0134B9A6A12F0007F9A6A14BFE3
:100E88001E201D2012F0807F9A6A18BF1F2012F4BE
:100E9800002F9A6A18BF212012F4802F9A6A18BF6F
:100EA800222012F4003F9A6A18BF232012F4803FD0
:100EB8009A6A6FEA02426FEA12429A6218BF2420C5
:100EC800704700BF00ED00E010B5164B9A6A9C6AA7
:100ED80012F4805F14BF1722162214F4006F9C6A64
:100EE80018BF1822A40509D59A6B9A6A120404D56A
:100EF80018B19A6A22F400429A621922094B986A38
:100F080010F4806F986A18BF1A2210F4807F986ACC
:100F180040F47F4098624FF000030B700CBF1046FE
:100F28001B2010BD00ED00E0F0B5484B5B688BB0AE
:100F38000446C3F30803002585F31188BFF36F8FB8
:100F480002F07F40B0F17F4F11D102F00C00082869
:100F58000DD010074CBF0C4601250022033B8DF82D
:100F68000720032B05D8DFE803F0246367602C46CD
:100F7800F3E700239DF80720CAB902AE04F1200761
:100F880020686168324603C20834BC421646F7D16D
:100F9800099A002D54D0C2F3080121B96FEA5222F0
:100FA8006FEA4222099202A9184603F0E1FB0BB04E
:100FB800F0BD264BDA6A9107DBD4DA6A002AD8DB5F
:100FC800DA6A5200D5D55A69A16942F480725A6129
:100FD800BFF34F8FBFF36F8F5A6931F8021C22F4A9
:100FE80080725A61BFF34F8FBFF36F8F4DF6027255
:100FF80091420AD09A6AD2B24AB10DF10702012190
:101008002046FFF7F3FE0346B4E72368B2E79A6A7F
:1010180012F47F4F05D00DF107010120FFF754FFAF
:10102800F1E79B6AB3F5803FA3D3FFF723FFEAE715
:101038000DF107020021E3E70DF107010020EDE7BC
:1010480022F4FF7222F00102ACE700BF00ED00E0DD
:10105800044B5A6942F010025A615A6922F0080298
:101068005A61704700ED00E0EFF30880EFF3098163
:1010780001B57246FFF758FF01BD00BF102080F38D
:10108800118808484FF40461401880F30988EFF389
:1010980014800221084380F31488BFF36F8F00F097
:1010A8009BF8000000050020084B9B6883420BD189
:1010B800EFF3058343B1064B5A6842F080525A60F9
:1010C8005A6A22F400425A6204F028BCA80400209C
:1010D80000ED00E0094A93686FF00A019967084932
:1010E80058674B6843F080534B60002383F31188A3
:1010F800BFF36F8F9368986F704700BFA8040020F4
:1011080000ED00E015498A684FF030001044EFF315
:10111800098C80E8F01F102080F31288BFF36F8FCE
:101128000F4F4FF000664A698A603E604FF07004C6
:10113800141920680B4C2060506F0023536780F30C
:10114800118804B5104600F0E1F8BDE8044002F14A
:10115800300090E8F01F8CF309887047A80400203D
:1011680004ED00E0580300201EF0040F0CBFEFF35D
:101178000880EFF30980816911F8021C0229FFD069
:1011880001B5724603F0FAFA01BD00BF40B200286B
:1011980007DB044A4109012300F01F00834042F89D
:1011A8002130704700E100E040B20028A8BF00F1FC
:1011B800604001F10101B8BF064B4FEA0111ACBF15
:1011C80000F5614000F00F00C9B2B4BF195480F8AF
:1011D8000013704714ED00E008B5084B084A23F0E7
:1011E8007F039360BFF34F8FBFF36F8F01F0E6FF6C
:1011F80002F086FD00F060F802F024F80000000814
:1012080000ED00E042F8203C009B42F81C3C0A49F3
:10121800019B42F8183C029B42F8143C21F0010162
:101228004FF0807342F8043C42F8081C0023203A2F
:1012380002654367704700BF010D0008094A03466D
:10124800906870B113F1160F006E05D0A0F140023E
:101258009A4205D8834203D2814228BF00207047B2
:1012680000207047A804002008B515460B4A0C4B0F
:101278009060026F1A600E4600F048F82C4686F31C
:1012880009884FF00000074B984720464FF00001AF
:101298004FF000024FF00003034C2047A804002041
:1012A80058030020A3470008010D0008014B102235
:1012B8001A61704700ED00E0044800231021C218AD
:1012C80001333E2B82F80013F9D1704700E100E0AA
:1012D80008B5EFF30583064A103B02EBC30152F849
:1012E800330049688847BDE80840FFF76BBD00BF79
:1012F800945C0008024B034A0348012100F076B8C9
:101308000000012000000020905E0008026E054BDE
:10131800403A1A60044A4021C3E9011218460121E3
:1013280000F06EB85C03002000000B15084AC2F8F4
:1013380098000B6823F01F03034343F01003C2F81F
:101348009C308B6843F00103C2F8A030704700BF9F
:1013580000ED00E02DE9F043DFF8608085B00E462F
:101368001F4604464FF00009B14523DA6068D8B13A
:101378003FB1411E08421BD11F2819D923681942C1
:1013880016D12368019303F01CFAA368034303935F
:10139800D8F89050C5F30725D0B2013DA84207D828
:1013A80001A9FFF7C3FF421C09F101090C34DBE76F
:1013B8006FF01502104605B0BDE8F08300ED00E0BF
:1013C800044B0522C3F89420BFF34F8FBFF36F8FF0
:1013D800704700BF00ED00E0BFF35F8F024B0022B3
:1013E800C3F89420704700BF00ED00E010B5034C2F
:1013F80001232278FFF7AEFF207010BDEE04002015
:1014080008B50B4A00231278FFF7A4FF10F1160F56
:1014180007D0084A0021D2F89030C3F30723984236
:1014280000DB08BDC2F89800C2F8A0100130F2E74E
:10143800EE04002000ED00E02DE9F043534B544C3E
:10144800D3F890302568C3F307239D4285B000F296
:101458009A80FFF7C1FF00200C2685421AD14D4C17
:101468004D4F25706846FFF783FCDFF82081DFF8D1
:101478002C9106460025AE4213D12378434900201B
:10148800D1F89020C2F30722934276DBFFF798FF4A
:10149800002042E0616806FB0011FFF747FF0130BA
:1014A800DBE7009800EB05114FEA051CCB683B40D1
:1014B800B3F5000F48D00AD8B3F5001F30D0B3F504
:1014C800800F36D0B3F5801F10D00135D3E7B3F1C4
:1014D800807F42D0B3F1007FF7D150F80C30886894
:1014E8004A6803F06EF940F4802009E050F80C30A7
:1014F80088684A6803F065F940F0885040F4302065
:10150800CDE901230390D8F890302078C3F307235E
:10151800013B98422AD96FF0150005B0BDE8F08369
:1015280050F80C3088684A6803F04BF940EA090023
:10153800E6E750F80C3088684A6803F042F940F052
:10154800E06040F40030DBE750F80C3088684A6807
:1015580003F037F940F08270D2E750F80C30886811
:101568004A6803F02EF940F08870C9E701A9FFF72F
:10157800DDFE237801332370A7E7C1F89830C1F85E
:10158800A00001337CE74FF0FF30C6E700ED00E034
:101598009C5E0008EE0400200000F0FF0000081127
:1015A80008B5024B1B689847002008BD6803002057
:1015B800034B044A1860937843F002039370704712
:1015C80068030020AC00002008B50649064821F051
:1015D8000701C1F1005202F5803203F07CF80020C7
:1015E80008BD00BFC71200206C0300202DE9F041A0
:1015F8000F4E104F054600244FF001082A781319A2
:10160800DBB208FA03F0F36830EA030309D152FAAF
:1016180084F3F06057F833201AB107EBC303596815
:1016280090476A780134E3B29A42E7D2BDE8F08184
:101638000008005878030020044B184400230133A5
:10164800994200F8012BFADC704700BF8C0100209A
:10165800034670B1B0FA80F2C2F11F02D2B2064955
:101668008856064AD2F880100B43C2F88030FFF73C
:101678008DBDFF22F3E700BF8C0100200008005851
:10168800034AD2F8803023EA0003C2F8803070475A
:1016980000080058032921D8DFE801F0020C1019CE
:1016A8000F4B1A6822EA00021A605A6822EA0002FE
:1016B8005A6070470A4B1A680243F5E7084B5A68A4
:1016C80002435A601A6822EA00021A607047044B03
:1016D8001A6802431A605A6810435860704700BF7E
:1016E8000008005830B5B0B1B0FA80F3C3F11F0359
:1016F800DBB20B4850F833408C4204D100EBC305F1
:101708006D68954205D044B940F8331000EBC3002A
:101718004260002030BDFF23EBE76FF00F00F9E7D0
:101728007803002060B1B0FA80F3C3F11F03DBB285
:10173800044A002142F8331002EBC302516070479B
:10174800FF23F5E77803002000F00302043292003B
:101758000F23934043EA900000F003030233064A44
:1017680052F82320030C02EA104093FAA3F3B3FAC9
:1017780083F3D840704700BF00000140F0B50A79F4
:1017880012F0200318D10C78082C15D14C78042CB1
:1017980012D14C88456894B143F6FF718C4217D03A
:1017A800254F05F1160636F8021F394389B28C42D7
:1017B80006D00133082BF6D16FF0150007E0234659
:1017C80095F92810012905DC0029F5DB0020F0BD7A
:1017D8000723F5E70229EFD1016991F9A600461C14
:1017E80002F01F042A6801D098420ED181F8A63071
:1017F80051694FF48070A04021EA0001516151699C
:1018080021F007010B435361E0E791F9A700451C5C
:1018180001D09842D0D181F8A730556907484FF4D4
:101828008071A1406840014069405161516921F0CF
:10183800700141EA0313E6E700C0FFFF04FFFF035E
:1018480038B52C4B1A68520745D52B4C1A6CD4F86E
:101858009430991CC4F894101A8094F8A53094F820
:10186800A4200133DBB29A4284F8A530254632D150
:10187800002384F8A530636E9BB3E36FB4F8882027
:101888003BB11E4804F164019847012811D0022891
:1018980022D0B4F88830B4F884209A421CD9013395
:1018A800A4F88830A36F4BB9BDE83840124803F05C
:1018B80012B8D4F89830C4F89430F3E7BFF35B8FCC
:1018C80055E8003F5A1E45E800210029F8D1BFF32A
:1018D8005B8F012BE8DC38BDA36F13B1084804F017
:1018E8005AF84FF6FF73A4F8A6300648BDE838400A
:1018F80001F0DEBD00240140000000201C5C00084F
:10190800080000205000002037B543681D680446D1
:10191800284603F01FF863681A68936823F00043A9
:1019280023F0170343F0004393609368002BFCDB1C
:101938006368064899688368DB680BB101AA984711
:10194800284603B0BDE8304002F0EBBF7C5B0008DE
:101958002DE9F347476805693E680446DFF8D4A0D7
:10196800504603F0C1FE002861D04FF6FF73A5F87A
:10197800A630C5F89040D4F80490DAF80830D9F8C1
:1019880008101B68D9F8008050469847B8B9D9F8AC
:10199800102022F00043B3F1804F3BD0B2F1004F4A
:1019A80038D02549D1F8083723F470131343C1F808
:1019B8000837D8F8103023F04043C8F81030786959
:1019C80001AA002103F0A3FB002829DB019B0022C8
:1019D8001979186800F0A2FC002821DBB36823F00D
:1019E800104323F0170343F08053B360142003F02F
:1019F8006CFE7B68CBB92046FFF786FFF36823F4BB
:101A08005C63F360AB6C1BB905F1400001F050FD5D
:101A1800002007E0D8F8103023F040431343CCE708
:101A2800831CDBD002B0BDE8F0879847E3E76FF08E
:101A38001200F7E77C5B0008002001402DE9F04F19
:101A4800036985B007460E4603F140094FF0FF329F
:101A58004FF0FF33484601F05FFD7B683C691D6825
:101A6800B368C4F89430D6F80480C4F8A08040461F
:101A7800FEF7C2FE002384F8A40084F8A530B8F16C
:101A8800000F08D16FF01504484601F011FD2046FB
:101A980005B0BDE8F08F7A68106892F92AC028323C
:101AA800634501DB13D1EDE752F8041F96F810E007
:101AB800BEEBD14F40F088805FFA81F8B8F1FF0F94
:101AC800C1F30422C1F3423BC1F3024A7ED13B6910
:101AD8007868D3F8A0204FF0010E0023002A40F0C8
:101AE800908090F929204AB90268C3F311039362E0
:101AF80013689904FCD54FF40053136094F8A4308C
:101B080032685B0012B1928902FB0333F2689A4291
:101B1800C0F0B18096F811A0BAF1000F7DD12B6901
:101B2800DA0706D5284602F015FF2B6923F00103D2
:101B38002B61B37C13B13846FFF7E6FE284602F066
:101B4800F0FE10232B606B6843F004036B6037468C
:101B58000FCF04F164050FC53B682B60002727668B
:101B68003368002B00F083800FCB04F1780585E8FB
:101B78000F006566A4F88870002878D0BFF35B8FE3
:101B880054E8003F44E80072002AF9D1BFF35B8FA4
:101B9800A06F633047F1000164220023FEF712FEB4
:101BA8000022CDE90001002304F1080002F074FAD4
:101BB8004FF0FF324FF0FF3304F1500001F0ACFC5E
:101BC80000B12066246E5FE7013369E750F80830FA
:101BD8000392D3400BEA03039A453FF478AF02F02F
:101BE800B9FE7B68039A196851F808300BFA02FBB2
:101BF80023EA0B030AFA02FA43EA0A0341F8083017
:101C080065E792FAA2F1B1FA81F10EFA01FC4CEA09
:101C180081610B4322EA0C0260E7BAF1080F3FF634
:101C280031AF2B69DB0706D4284602F093FE2B69F7
:101C380043F001032B61114B53F82A80104B53F8E2
:101C48002AA02B6903F01C039A4505D12B6903F4DC
:101C5800F07398453FF46DAF284602F07BFE2B6980
:101C680048EA0A0823F4FE7343EA080360E72046BB
:101C780002F031FE9CE76FF00B0405E7505F0008A7
:101C88002C5F000810B51B4B18680B68062B144610
:101C980015D0092B0AD893B1013B082B0FD8DFE8E0
:101CA80003F019172225270E0E1C1C00582B11D0E3
:101CB80008D84C2B0ED0502B0CD0482B0AD06FF0E4
:101CC800850009E0602B05D0642B03D05C2BF5E779
:101CD8004FF400402060002010BD00F0DDF806231E
:101CE80058434008F6E74FF4FA40F3E70248F1E7B3
:101CF8000020EFE7800100200024F40070B5624D59
:101D080002F0BDFE284602F0B9FE01F003F94FF0DB
:101D1800B0435E4AD3F8083103F00F0352F823604A
:101D28001368B0FBF6F6B5FBF3F5AE4202D22846CF
:101D380001F062F902F02BFE012809D04FF0B04201
:101D4800136843F48073136002F021FE0128FBD16D
:101D58004FF0B043D3F8942042F00102C3F8942026
:101D6800D3F894209207FBD5494B1A6842F4807245
:101D78001A601A68D405FCD54FF0B043D3F8902008
:101D880042F00102C3F89020D3F890209007FBD5C9
:101D9800D3F8902042F08002C3F890204FF0B04270
:101DA800D2F890301905FBD539490B6823F48073B4
:101DB8000B60936803F00C030C2B1CD102F0E7FDB9
:101DC800012807D0136843F48073136002F0DFFD25
:101DD8000128FBD14FF0B0439A6822F0030242F089
:101DE80001029A609A6802F00C02042AFAD19A68F1
:101DF80022F0F0029A604FF0B044236823F0807319
:101E08002360E36823F0606343F00073E360E368F2
:101E180043F08073E36000F043F8236843F0807375
:101E2800236023689B01FCD5A36823F0F003A3601B
:101E3800A36843F00303A3604FF0B042936803F034
:101E48000C030C2BFAD1AE4202D3284601F0D4F889
:101E5800104B0D4A1A604FF0B04300209A6822F4E4
:101E6800E0629A609A6822F460529A60D3F8082176
:101E780022F0F002C3F80821D3F8082122F00F025B
:101E8800C3F8082170BD00BF006CDC0200620008C6
:101E98000004005880010020004870470024F40026
:101EA8004FF0B0430549DA681140054A0A43DA6041
:101EB800DA6842F08052DA60704700BF8C80FF1FFA
:101EC8000206002008B5074803F00EFC38B10648A2
:101ED800FFF76EFB0448FEF7F1FE002008BD6FF027
:101EE8001200FBE7085C0008F51E00080A2838B550
:101EF800074D044604D1AB680D215B682846984716
:101F0800AB6803485B68E1B29847204638BD00BF1C
:101F1800085C00082DE9F843D0F80480D0F8109048
:101F2800D8F8080017460D461E4602F0A8FCB7F57B
:101F3800001F044616D12846D8F80840FFF704FCCD
:101F480084420CD1294602F09AFC0446FFF798FB1C
:101F58002046FFF7E7FB00212046FFF79BFB002008
:101F6800BDE8F883B7F5800F20D0B6F1806F19D09F
:101F7800B6F1C06F18D0B6F1007F1AD10226104909
:101F88004A462046FFF7AEFBB0B9D8F808102846F5
:101F980002F078FC20463146FFF77CFB2046FFF72D
:101FA80057FBDCE70126EAE70326E8E76FF0850040
:101FB800D6E76FF01500D3E76FF00F00D0E700BF4A
:101FC800414D000838B5036904465860084D284655
:101FD80003F08AFB40B16168AB680C311B68284686
:101FE800984700EAE07038BD6FF01200FBE700BFC9
:101FF8007C5B000830B504694068C0684568ED013D
:1020080007D543684A6823F47F0343EA02434360E1
:1020180030BD246A1D4D14F0010F44682AD044F4E1
:102028000064446044682C40234343600B7A9C0757
:1020380028D43AB313785B0724D4436843F08073F9
:1020480043604368039A23F000734360436823F4B2
:1020580080631343436043684A6823F47F0343EA79
:1020680002434360036843F001030360436843F499
:102078000053CCE724F40064446044682C4044EAEC
:102088004303D2E7436823F08073D9E700FCFFFFDE
:102098002DE9F74F446803690193E568E369DFF8C0
:1020A8000881DFF80891DFF808A1DFF808B100938C
:1020B8000020009B8342019B1A6A33D1C2F342027B
:1020C800012A61D0022A6BD140F2145E4FF4167CCB
:1020D8004FF4FA7740F27716DFF8DC800220421ED0
:1020E800B1FBF2F2B8FBF2F2BCFBF2F4013CFF2CBC
:1020F80053D8BEFBF2F3013BFF2B4ED8B6FBF2F9E7
:10210800B9F10F0F49D8B7FBF2F2013A0F2A44D8B8
:1021180043EA0943023843EA007343EA025343EAB5
:1021280004231DE00C23D4F818C0DFF890E003FB6B
:1021380000F70CEB0706736873451DD015D8534597
:102148001CD05B4514BF002301239B00C2F342024D
:10215800B2EB530F16D15CF807308B4212D1B3683B
:102168002B61002003B0BDE8F08F434508D04B45F4
:102178000CBF0A230023E9E70623E7E70223E5E784
:102188000823E3E7013094E741F25C2E4FF47A6CC0
:1021980040F2E2474FF4FA769EE7013011289ED1CB
:1021A8006FF01500DEE700BF40E13300404B4C0004
:1021B800A0860100801A060000CA9A3B40420F0020
:1021C800F7B50446436806691948DD680F4659683B
:1021D8008368DB680022019223B96FF0040420466B
:1021E80003B0F0BD01AA98470028F6DB376206F174
:1021F80010074FF0FF324FF0FF33384601F08CF9EB
:102208002B6823F001032B60204696F84E1002F04D
:1022180073FF0199FFF73CFF96F84D3004461BB158
:102228002B6843F001032B60384601F041F9D6E7EB
:102238007C5B00082DE9F7430446D0F80480056963
:102248004FF0FF320021284603F09BFA0026D8F809
:1022580000302046984785F84C6085F84E6001228A
:10226800114605F1100003F08CFA274F384603F0A9
:102278003BFA002845D0D4F8049001AAD9F81400F4
:10228800314602F044FFB0420DDB019B324619791A
:10229800186800F043F8B04205DBBB68D9F80410B1
:1022A8001B6838469847D8F81010184B994222D026
:1022B80015D8174B994220D0164BCB1A5942594181
:1022C800890041F010012046FFF77AFF002803DB60
:1022D800012385F84C30002003B0BDE8F0830E4B95
:1022E80099420CD003F5C31303F5206399420CBF40
:1022F8000A210021E5E70621E3E70221E1E70821B9
:10230800DFE76FF01200E7E77C5B000840420F0050
:10231800A0860100801A060040E133002DE9F0474D
:102328001E4F044600EBC1060025B44201D100202F
:1023380014E02068C30600F01F0911D4656845F051
:102348002005C0F3481AC0F344200F2823D857F8B3
:102358002080B8F1000F0DD16FF01200BDE8F087B2
:10236800B9F1100F04D0B9F1110FEAD16568E8E7A7
:102378003025E6E7404603F0B7F90028ECD04B4695
:102388002A460AF00F01404602F0ECFC002804F14E
:102398000804CADAE2E76FF01500DFE764600008B6
:1023A8000C292DE9F84F16466BD14468D0F810B0C7
:1023B800A368D4F80490B3F800A02369E7681D88DF
:1023C800DBF800309B681889FDF768FF80462068B5
:1023D800FDF764FF01464046FEF76CF88046BBF9FE
:1023E8003A00FDF75FFF01464046FDF7AFFF1FFAD1
:1023F8008AFA80462AFA09F0FDF750FF014640465E
:10240800FDF79AFE80466069C01BFDF74BFFADB231
:10241800A5EB0A05044625FA09F0FDF73FFF01463A
:102428002046FEF747F801464046FDF78FFF044671
:102438003846FDF737FF01462046FDF77FFE044684
:10244800FEF74AF90746FDF72DFF01462046FDF73E
:1024580073FE0F49FDF77AFF4FF04F410546FEF72F
:1024680013F988B94FF09E412846FEF72BF9044628
:1024780050B937602846FEF72FF970602046BDE84E
:10248800F88F6FF08500FAE76FF02100F7E700BFDB
:1024980000247449F8B53C29056901D00C293BD1C1
:1024A80005F124064FF0FF324FF0FF33304600F0BD
:1024B80037FF294651F8040B83681B689847044680
:1024C80028BB174FD7F80837D7F8082703F0E07369
:1024D80022F0E072134343F40003C7F8083778206A
:1024E80003F00BFA294651F8100B83685B6898478C
:1024F800044608B92B8F6B87D7F80837D7F8082711
:1025080003F0A07322F0E0721343C7F8083730468F
:1025180000F07EFF2046F8BD6FF08504FAE700BFA3
:1025280000200140F8B53C29056901D01F2938D1A0
:1025380005F124064FF0FF324FF0FF33304600F02C
:10254800EFFE294651F8040B83681B689847044638
:1025580010BB154FD7F80827D7F8083702F0E072F4
:1025680023F0E073134343F080732946C7F8083714
:1025780051F8100B83685B689847044608B92B8F9D
:102588006B87D7F80837D7F8082703F4400322F0F9
:10259800E0721343C7F80837304600F039FF204689
:1025A800F8BD6FF08504FAE700200140F8B53C2932
:1025B800056901D01F293BD105F124064FF0FF32F0
:1025C8004FF0FF33304600F0ABFE294651F8040BBC
:1025D80083681B689847044628BB174FD7F8082715
:1025E800D7F8083702F0E07223F0E073134343F49E
:1025F8008003C7F808370C2003F07FF9294651F803
:10260800100B83685B689847044608B92B8F6B8763
:10261800D7F80837D7F8082703F0C07322F0E0721C
:102628001343C7F80837304600F0F2FE2046F8BDDD
:102638006FF08504FAE700BF00200140012912D09D
:10264800022907D089B90068094BC01A18BF0120B0
:10265800000370470068064B984214BF4FF440507F
:102668004FF400507047002070474FF400507047F7
:102678000080004070B51D46094B002633F8122033
:102688003346FEF79FF8090241EA10616C08000220
:1026980020182A46334641F10001FEF793F870BD31
:1026A80058620008F7B50269436810681D680C464F
:1026B800D9688368DB68B3B101AA9847002812DBA0
:1026C800214B9D4232D1019F204E00252346AAB2BC
:1026D80038460021FFF7CEFFA0F54070B04204D97C
:1026E80001350C2DF2D103B0F0BD174EF36A23F07B
:1026F8000F032B43F362002CF5D0154B33F815204C
:10270800002319463846FEF75DF8090241EA1061D0
:1027180063080002C01822464FF0000341F100018F
:10272800FEF750F8C0F31300F060DCE72B6823F4E1
:1027380000432B60019B002CD5D003EB5403B3FB63
:10274800F4F39BB2EB60CEE700800040FFFC0F0083
:10275800586200082DE9F84306460A79406833694B
:1027680004685F68012A0D464CD0931ED3F1000817
:1027780048EB03084FEA88286979FFF75FFF95F867
:102788000690B9F1020F03463FD0B9F1040F40D0CB
:10279800002A48D0033A012A3DD94FF48050B3F5B6
:1027A800805F42D0B3F5405F41D0002B0CBF0123BE
:1027B800032399422FD1414602F0A3FD81452AD136
:1027C800EB7963B1012B34D11B4B9C4207D0A3F5A5
:1027D80074439C4203D003F570539C421BD1236879
:1027E80023F0010323602946304602F040FE2368A7
:1027F80043F00103236095E8030087E80300002005
:10280800BDE8F8834FF4C068B6E73AB94FF0805096
:10281800C5E7002AC1D06FF08500F1E7033A012A25
:10282800F9D90020BBE71046B9E70023C1E7022326
:10283800BFE7032BC8D0EEE700380140F7B50569BC
:10284800446806464A48286002F04EFF002800F017
:1028580087802868E16883681B6898470028C0F269
:102868008180206A01AA002102F051FC002879DB4E
:10287800019B002219791868FFF750FD002871DBC9
:10288800756833692C685F68236823F00103236047
:10289800686802F029FF002862D0D5E90101836841
:1028A800DB6803B1984754E8003F43F00C0344E861
:1028B8000032002AF7D13946304602F0D8FD2B7D88
:1028C8001BB1A36843F00803A3606B7D1BB1636869
:1028D80043F400436360AB7D1BB1636843F480330A
:1028E8006360EB7D1BB1636843F4003363602B7E48
:1028F80023B3204B9C4207D0A3F574439C4203D0DA
:1029080003F570539C422FD173681A68936843F497
:102918008043936023686A7E23F0787343EA4253C6
:1029280023602368AA7E23F4F81343EA0243236052
:10293800EB7E1BB1A36843F40043A3602B7F1BB15C
:10294800236843F000532360236843F001032360A6
:10295800E3699A02FCD5E3695B02FCD5002001E03B
:102968006FF0120003B0F0BD6FF01500FAE700BF7A
:102978007C5B00080038014010B54FF0E0230F4998
:102988009C691A6908689B690D4902F4803234B958
:1029980093B903464AB90A681044C01A10BD002BFF
:1029A80008BF03460AB9A342F5D90A6802440A6077
:1029B8004FF0E0221269EEE70446F3E7A404002092
:1029C800980400200A4B102283F82320094B4FF467
:1029D80096521A60084B002018604FF0E02341F22D
:1029E800BF225A6198611A6942F007021A6170475A
:1029F80000ED00E0A404002098040020684620F0C0
:102A080007018D4601B5FFF7B7FF0D4B0D4A186852
:102A180011680844106000221A600B4A13684FF4CA
:102A28009651C01AB0FBF1F001FB0033136001F0BE
:102A380043FAFEF7C7F9BDE801408546704700BF75
:102A480098040020A00400209C0400202DE9F041F7
:102A5800334E91B1421C0AD14FF0E022136923F0A2
:102A6800010313614FF07F433360BDE8F0813468A0
:102A7800012807DC4FF000080BE0431C3468F7D14D
:102A880040F6A65040F6A7539842A8BF184600F152
:102A9800FF38EFF31185102383F31288BFF36F8F8C
:102AA800FFF76AFF4FF0E023DFF878C09F69DCF892
:102AB800003018441C4B00221A601C4B1A68831AF9
:102AC8002AD44FF4965E0EFB083303F595531F3353
:102AD800B3FBFEF1131A0EFB0133B3F5806F144AF2
:102AE80038BF4FF48063934228BF13464FF0E0226B
:102AF800336091698F42A7EB010703F1FF3338BFB9
:102B08003F195361384400239361CCF8000085F3E2
:102B18001188BFF36F8FA8E74FF48063E6E700BF23
:102B2800A4040020A0040020980400209C04002095
:102B380080E8FF0038B5EFF31185102383F312887E
:102B4800BFF36F8F084B1C68084B1B68E41AFFF72C
:102B580013FF85F31188BFF36F8F4FF4965320440A
:102B6800B0FBF3F038BD00BFA00400209C04002097
:102B780038B5EFF31185102383F31288BFF36F8FF5
:102B8800044B1C68FFF7F8FE85F31188BFF36F8FBD
:102B9800204438BDA0040020F8B50D290369144667
:102BA80019D11988164EAF2048434FF6FF720023FB
:102BB8000021FDF7B7FD1F46A0F12D05A2FB060178
:102BC80000234FF6FF7206FB0711FDF7ABFDC4E9C2
:102BD80000500020F8BD10290AD1588864235843B2
:102BE800050C43F6095380B2A0FB0303800AEEE705
:102BF8001B2902D19D880020E9E76FF08500E9E7ED
:102C080040420F00F0B53C294568066985B0044686
:102C18000F4637D12A8940F201239A4258D1AB7A1C
:102C280013B1284602F013FD606842F2961102F0D3
:102C3800F2FC002847DB4FF4FA70002102F0E9FCAF
:102C480060684EF6054102F0E6FC00283EDB0120F4
:102C5800002102F0DEFC606809228388006801A96F
:102C680002F000FD002831DBBDF8040040BAB08056
:102C780080B202F097FC9DF80630834245D06FF091
:102C8800040023E01B2963D8334BCB40DB075FD517
:102C98002A8940F201239A421AD1AB7A002BC3D079
:102CA800284602F0D4FC17F01D0FBDD1606842F22F
:102CB8009D1102F0B0FC002802DA2B7A012B05D016
:102CC8004CF25030B9E72B7A012BB4D105B0F0BDE6
:102CD8006068032301AA4EF2B84102F0D6FC00282E
:102CE800F4D1BDF804707FBABFB2384602F05AFC7E
:102CF8009DF806308342C2D105200021C7F30A0798
:102D080002F087FC002FE3D09AE7BDF8070040BA2D
:102D1800308080B202F046FC9DF809308342AED183
:102D2800BDF80A0040BA708080B202F03BFC9DF802
:102D38000C308342A3D12A8940F201239A4201D15F
:102D4800AB7A0BB90020C1E7606802F071FCF9E7C3
:102D58006FF08500BAE700BF002001082DE9F043B5
:102D6800466887B00546306802F0BEFC002800F0CF
:102D7800CB80686802F06BFC284602F098FC041EC1
:102D88005CDB43F24661686802F045FC00210446BA
:102D9800C82002F03EFC002C50DBF289686842F241
:102DA800274102F021FC002104460A2002F031FCF0
:102DB800002C43DB032302AA42F22231686802F0A6
:102DC80064FC002104460A2002F023FCBDF8080038
:102DD80040BA80B202F0E6FB9DF80A3083422BD15C
:102DE800002C2BDBB2896868C2EB0242AF2342F2A7
:102DF8001D415732B2FBF3F292B202F0F5FB00210B
:102E080004460A2002F005FC002C17DB032302AA63
:102E180042F21831686802F038FC002104460A20A2
:102E280002F0F7FBBDF8080040BA80B202F0BAFB26
:102E38009DF80A30834205D06FF00404204607B09D
:102E4800BDE8F083002CF9DB6868D5F810800F2303
:102E580002AA43F2826102F018FC041EEEDB0A208B
:102E6800002102F0D6FBBDF8084064BAA4B220469F
:102E780002F098FB9DF80A308342DDD1BDF80B00C3
:102E880040BA1FFA80F9484602F08CFB9DF80D30D5
:102E98008342D1D1BDF80E707FBABFB2384602F076
:102EA80081FB9DF810308342C6D12346184A0F2172
:102EB800CDE9009708F1060001F02EF9F27A68686A
:102EC80042F2164102F090FB041EB7DB0A200021F3
:102ED80002F09FFB328940F201239A4206D1B37A6D
:102EE80013B1686802F0A4FB0024A7E7727A686847
:102EF80042F2AC1342F2B111012A08BF194602F09E
:102F08008AFB00EAE07499E76FF0120496E700BFC5
:102F1800CE64000810B54FF0B0439A68D96812F033
:102F28000C0205D00C2A4AD101F00303012B53D11E
:102F38004FF0B0412C480B6813F0080306D00B681B
:102F480013F0080337D1D1F8941007E00C68240770
:102F580056BFD1F894300968C3F3032350F82330DF
:102F6800002A0CBF184600204FF0B0418A6802F0D2
:102F78000C020C2A1ED1CA6802F00302022A31D0C0
:102F8800032A06D10B68194A13F4801F184B08BF8F
:102F980013464FF0B042D068D168D268C0F306201B
:102FA8005843C1F302130133B0FBF3F0530F01335D
:102FB800B0FBF3F010BD0B68C3F30313CEE7042A8C
:102FC80007D0082A08D11B6813F4801307D10748D3
:102FD800CAE708480023C7E700231846C4E704489F
:102FE8000023C1E7034BD4E7C061000800127A0050
:102FF80000093D000024F4001F4A034607CA84B0B4
:103008000DF1100C0CE9070018463BB31B4B1B686D
:1030180003F4C063B3F5007F22D1194B984229D835
:10302800184B984224D9184B98428CBF0220012093
:10303800164904AB03EB80000B6850F80C2C23F006
:10304800070313430B60086800F0070082421CBFA7
:10305800086800F00700831A5842584104B07047C6
:103068000B4B984206D80B4B984201D90A4BDBE729
:103078000020DDE70020F1E7845E00080004005826
:10308800006CDC0280A812010051250200400058A3
:103098000024F400808D5B00001BB70038B5EFF307
:1030A8001185102383F31288BFF36F8F064B9C683A
:1030B80002F02DFB85F31188BFF36F8F2046BDE822
:1030C8003840FDF7F1BF00BFA804002038B5094B10
:1030D80053F82040013053F82050A54200D838BD9D
:1030E800636823B1204602F015FB0834F5E723682E
:1030F8009847FAE74062000870B52B4B2B4C2C4DD3
:10310800012286B003201A70FFF7E0FF00F0FEFFEF
:1031180002F01CFB0420FFF7D9FF2646AE4204F15B
:10312800300410D300F068FC204C224EAC4226D369
:1031380000F076FCFDF7F8FC1F4A137B23F001032F
:10314800137306B070BD54F80C3C059354F8103C4A
:10315800049354F8143C039354F8183C029354F81D
:103168001C3C019354F8203C009354E90A2354E989
:103178000C0100F0F7F954F8303C5E65CDE7D4E96E
:103188000A23B3F1FF3F08BFB2F1FF3F05D052EA6F
:103198000301206803D102F000FB3034C6E7314652
:1031A800183000F00FFEF8E7EF040020845E0008F6
:1031B800845E0008CF5800083802002008B503488C
:1031C800034A0021121A02F0BDFA08BDB801002016
:1031D800F404002070B5002386B00122CDE9042351
:1031E800134E144D01930F22CDE9023212491423D4
:1031F80003FB005506EBC01604464FF4A07000FB15
:1032080004110E4B00954FF48072304600F0AAF975
:10321800737B0B4AEE6023F0040373734FF404636B
:1032280004FB033313442C746B6006B070BD00BFFD
:10323800B8010020A8040020400D002057570008BE
:1032480000050020BFB50020FFF740FF2C4B83F39B
:1032580008882C4D2C4E6B692C4F43F400736B611E
:103268000024F02385F82230EC772C766C76AC7647
:1032780085F820406B6A43F4E0236B62FDF7E8FEB3
:10328800FEF714F84FF0FF33AB62EB62FEF7D4F8A9
:10329800FEF730F81E4BB36040F201129A81C3E981
:1032A8001844DC6602F01FFAFDF74AFD0120FFF71B
:1032B8000DFF0220174DFFF709FF00F0E5FB164B45
:1032C80075610593012315490094CDE903434FF433
:1032D80080623B46CDE90144284600F043F96A7B09
:1032E800064622F0040228466A7302F092FA204643
:1032F800FFF770FF3A4631462846FDF7B5FF00BF95
:10330800400D002000ED00E0A80400200131000875
:10331800B802002038020020E6640008800E002071
:103328002DE9F341044617461E46EFF31188102392
:1033380083F31288BFF36F8FC368334A7BB1806809
:103348009168884219D057EA060318D188F3118882
:10335800BFF36F8F6FF00F0002B0BDE8F081916886
:1033680091F90E1021610133E3609368A36088F33B
:103378001188BFF36F8F0020EEE72169F2E791F91A
:103388000E1090F90E309942A8BF19466FF07E02D0
:103398009142B8BF11468B422DDD02F0E3F9054694
:1033A800CDE9007619482246414600F067FA002820
:1033B800E1D0EFF31186102383F31288BFF36F8FE8
:1033C800A068D0B1236821699C420AD04BB193F917
:1033D8000E309942A8BF19466FF07E039942B8BFD4
:1033E800194602F0BFF940B10848314600F0C0FA6A
:1033F8006FF00A00B0E70025D2E7002DF4D186F37C
:103408001188BFF36F8FF3E7A8040020F0040020B1
:10341800F8B583680546002B3FD0234A926893424B
:103428003ED1C368012B03D9013BC3600020F8BD1E
:10343800EFF31187102383F31288BFF36F8F0169AD
:10344800806802F08FF92C68A54207D10023C5E9EE
:10345800023387F31188BFF36F8FE7E7002CF5D0AD
:10346800D4E9003213605A60637B002623F002031C
:103478006373C4E90066A66004F1180002F070FAEC
:10348800AC6094F90E302B612046A66702F0C1F9B2
:103498000648394600F06CFAC8E76FF01500C6E731
:1034A8004FF0FF30C3E700BFA8040020F00400205D
:1034B80070B5EFF31186102383F31288BFF36F8F73
:1034C8000468A0421AD0CCB1D4E9003213605A6023
:1034D800637B002523F002036373C4E90055A560EC
:1034E80004F1180002F03CFA2046A56702F091F9B1
:1034F80031460848BDE8704000F03ABAD0E90232D7
:103508009A4218BF0133836086F31188BFF36F8F27
:1035180070BD00BFF004002013B5EFF31181102433
:1035280084F31288BFF36F8F846844B1013C8460D0
:1035380081F31188BFF36F8F002002B010BD52EAEB
:10354800030406D181F31188BFF36F8F6FF00F006A
:10355800F3E7CDE900230246014800F08FF9ECE7D4
:10356800F00400202DE9F043073285B022F007026D
:103578000E461F461099017300F158037F32C0E9C7
:1035880016330446002322F03F020421836041736E
:103598003F2A0F98A073C4E90633E37306F1400984
:1035A800A2F1400805D883F31188BFF36F8F08464E
:1035B80002DFB51829462046FDF7E4FB07300E9BCD
:1035C80020F00700A066C4E9189802930D9B0193A8
:1035D8002D1A0C9B00932A463B4631462046FDF7A0
:1035E80011FE00236365044B9B6803B1DB6EE36641
:1035F800284605B0BDE8F083A804002038B590F946
:103608000D20437B002A014604DA03F07F0343734D
:1036180002F0C5F80D4D2A46AB6852F8184F94428F
:1036280000D004B9EC688B4207D05A7BD20604D18B
:10363800DA897F2A01D9A2692AB1A34202D0204699
:1036480000F006FB23466B6138BD00BFA8040020CC
:1036580070B590F90D30427B002B36DBD10634D1A2
:103668008369002B31D11C4C62F07F0242732246E1
:1036780052F8181F914218BF0B46E16923B9C0E9F7
:1036880000210860E0610CE090F90E5093F90E609B
:10369800B5421BD0AE4219DD5968C0E90031086057
:1036A8005860A569954200D005B9E568A3685A7BBA
:1036B800D20604D1DA897F2A01D9AA6952B1AB426C
:1036C80002D0284600F0C4FA656170BD9942D6D090
:1036D8001B68D3E76361F8E7A80400202DE9F843E5
:1036E800002A427B0CBF4FF010094FF0080919EA75
:1036F800020F04460F4621D149EA0203D2092AD112
:103708004373B9F1080F2CD04FF00008344E3346FC
:1037180053F8185F9D4200D005B9F568B368AB420D
:1037280002D0284600F094FAB9F1100F756144D11F
:10373800BFF35F8F637B23F060036373284B9B6841
:10374800A34247D1EFF30583002B43D13846BDE8A8
:10375800F843FDF7BFBC03F07F03437302F01FF883
:10376800CFE7A36813B1204602F021F804F118004E
:1037780002F0F6F8A56D04F15806AE4211D04FF0EC
:10378800000875B1284602F012F805F1180002F099
:10379800E7F8C5F878802846FFF75AFFA56DAE42CE
:1037A800EFD10F4B9B689C42AED1EFF30588B8F17F
:1037B800000818BF4FF00108A8E7B8F1000FB7D00C
:1037C800084BB36040F201129A810022C3E9182223
:1037D800DA66ADE787F31188BFF36F8FBDE8F8832A
:1037E800A8040020B802002070B590F90D20437B92
:1037F800002A014604DA03F07F03437301F0CFFF88
:103808004B7B1D4C63F07F0322464B7352F8183FE5
:10381800E069934208BF002323B9C1E90020016091
:10382800E1610CE091F90E5093F90E60B5421ED09B
:10383800AE421CDD5868C1E9003001605960A569D5
:10384800A368954200D005B9E5688B4207D05A7B3A
:10385800D20604D1DA897F2A01D9AA692AB1AB42F2
:1038680002D0284600F0F4F92B46636170BD9842F7
:10387800D3D01B68D0E700BFA8040020F8B5124BCE
:103888000C461146114A98681060DDE90676EFF398
:103898001182102282F31288BFF36F8F9D68284629
:1038A80001F08FFFB6F1FF3F08BFB7F1FF3F06D029
:1038B80007493A46334605F1180000F083FA2046D6
:1038C800BDE8F840FDF706BCA8040020C8040020A5
:1038D800CF580008F8B50446EFF31187102383F397
:1038E8001288BFF36F8F437BDA0649B219D1856915
:1038F800BDB903F07F03437301F051FF437B1B4EB7
:10390800817363F07F034373334653F8182F9A4249
:1039180018BF1546F2695DB9C4E900321460F46154
:1039280011E0A173002087F31188BFF36F8FF8BDF2
:1039380095F90E00814214D0884212DD6A68C4E904
:10394800005214606C60B4699C4200D004B9F468F9
:10395800B3689C4202D0204600F07AF974610120D5
:10396800E1E7AA42D8D02D68D5E700BFA804002017
:1039780049B9EFF3058030B9054B5A699B689A42FB
:1039880001D0FDF7A7BB81F31188BFF36F8F704794
:10399800A804002010B5EFF31184102282F31288D6
:1039A800BFF36F8F427B510704D484F31188BFF3B0
:1039B8006F8F10BD22F004024273FFF749FE2146C3
:1039C8000248BDE81040FFF7D3BF00BFF004002055
:1039D800034648B9EFF3058232B9064A516992683D
:1039E800914201D0FDF776BB83F31188BFF36F8F47
:1039F800704700BFA8040020EFF31181102383F360
:103A08001288BFF36F8F054B9A68D37B013BD37342
:103A180081F31188BFF36F8F704700BFA80400209F
:103A280070B5EFF31186102383F31288BFF36F8FFD
:103A3800144DAB68DA7B0132DA732A4652F8184F14
:103A4800944200D004B9EC685A7BD20604D1DA89D2
:103A58007F2A01D9A2692AB1A34202D0204600F0E8
:103A6800F7F823466B6186F31188BFF36F8FEFF386
:103A78001180102383F31288BFF36F8FBDE8704065
:103A8800FFF7A6BFA8040020024B03F11802C3E900
:103A980006227047A8040020F8B5EFF3118610231A
:103AA80083F31288BFF36F8F1D4CA068437B03F02C
:103AB8007F03437301F073FEA3685A7B214662F0CB
:103AC8007F025A7351F8182FE0698A4208BF002212
:103AD80022B9C3E900100360E3610CE093F90E50CA
:103AE80092F90E70BD4217D0AF4215DD5068C3E998
:103AF800002003605360A5698D4200D005B9E568D0
:103B0800A3689D4202D0284600F0A2F865613046BD
:103B1800BDE8F840FDF7DEBA8242DAD01268D7E78E
:103B2800A804002050EA01032DE9F04105460E469D
:103B380003D1FFF7B1FF00202BE0831C71F1FF33A5
:103B480029DB01F022FF2C18EFF31188102383F3EF
:103B58001288BFF36F8F124F124BB8681860FFF7C7
:103B68004DFDB86810492A463346183000F02AF946
:103B7800BA68537B43F0100353734046FDF7AAFA23
:103B880001F003FF201A63EB0303012873F100031C
:103B9800D1DBBDE8F0816FF00104241AD4E700BF3F
:103BA800A8040020C8040020CF580008B1F1FF3F46
:103BB80008BFB0F1FF3F08B506D10A4B986801F07D
:103BC80037FE4FF0FF3008BDFFF7ACFFC1170930D3
:103BD8004FF00A024FF0000341F10001FCF7F2FD3B
:103BE800F1E700BFA8040020014B9868704700BFA8
:103BF800A8040020044BC01A044BC0105843044BBF
:103C080001221A54704700BF38030020ABAAAAAAA1
:103C1800F0040020C3897F2B12D80A4B1B6863B1BC
:103C2800094B90F90E201B689A4209DB437BDB069F
:103C380006D1064BC31A18BF012303F001007047D1
:103C48000023FAE7D0040020CC040020B8010020AB
:103C580070B50E4B0E4C1E7C06EB460304EBC304FA
:103C68000546204601F07CFE0A4B002228469A555C
:103C7800FFF7D0FF48B1084B08491A68013A2046B7
:103C8800D317BDE8704000F09DB870BDA8040020AF
:103C980038030020F0040020D0040020FD3B000879
:103CA80038B5EFF31185102383F31288BFF36F8FB4
:103CB800104B114A9C681068A04206D1FFF7C8FF54
:103CC80085F31188BFF36F8F38BD00211B7C11600D
:103CD8000A4AD35C002BF3D02046FFF79BFF00284D
:103CE800EED0637BDB0602D12046FFF77DFD204640
:103CF800E4E700BFA8040020C8040020F004002066
:103D08000748084A084908B5121A01F01DFD074876
:103D1800074A0849BDE80840121A01F015BD00BF5E
:103D280000000020B80100203865000800000020CD
:103D38000000002038650008034B1B680BB9FEF72C
:103D4800F9BE0020704700BFD404002030B570B120
:103D58000B4B5B6898420AD0036843B1D3E904214E
:103D6800D0E90445121941EB0501C3E90421D0E962
:103D7800003213605A600023C0E9003330BD00BF31
:103D88008401002010B50E4B1C689C4204D1FFF73B
:103D9800D3FF6FF0004010BDFFF7CEFF002CF8D026
:103DA800D4E904321B1A62EBE072B3F1004F72F1EE
:103DB8000001EEDA002AACBF18460020EBE700BF8E
:103DC80084010020B3F1FF3F08BFB2F1FF3FF8B50F
:103DD80004461D4616465ED08160EFF31187102316
:103DE80083F31288BFF36F8F013275F1FF3324DA42
:103DF8002E49D1E900206FF001039B1A4FF0FF32E2
:103E080062EB00009E1B60EB0500012E70F10003C1
:103E180001DA01260020C4E90460254ED6F800C066
:103E28007568B44508BF4FF0000CBCF1000F0DD108
:103E3800C4E900652C6074601CE0FFF77DFF013663
:103E480045F10005361845EBE070E4E7DCE90420AD
:103E5800D4E90431934271EB000E1DDAD21ADCF872
:103E6800043060EB0100CCE90420C4E900C31C6005
:103E7800CCF804403368B34209D09C4207D10D4BBB
:103E88001C6824B9FFF77EFF2146FEF7DFFD87F3A4
:103E98001188BFF36F8FF8BD9B1A61EB0001AC4529
:103EA800C4E90431C4D0DCF800C0BEE750030020E8
:103EB80084010020D40400202DE9F84FEFF3118C81
:103EC800102383F31288BFF36F8FDFF8B0A0DFF8F9
:103ED800B0902C4FC9F80000DAF8000000245045D3
:103EE80008BF00200025D7E90021D9F80030E046B6
:103EF80078B3D0E9046C4FEAE37EB3427EEB0C0B57
:103F080005DAF61A6CEB0E04C0E9046421E0B21875
:103F180041EBE671C0E90445C7E90021FFF716FF48
:103F280088F31188BFF36F8F83689847EFF3118880
:103F3800102383F31288BFF36F8FD9F80030DAF8B3
:103F480000009B1B5045C446C9F80030CBD1D7E9C7
:103F580000219A1841EBE3730024C7E90023C9F84C
:103F68000040FFF70FFF2146FEF770FD88F3118828
:103F7800BFF36F8FBDE8F84FFFF792BE84010020B2
:103F8800D40400205003002010B5EFF3118410234F
:103F980083F31288BFF36F8FFFF7CEFE054A0346FF
:103FA800D2E90001181841EBE37184F31188BFF3DB
:103FB8006F8F10BD50030020F8B50446EFF311874A
:103FC800102383F31288BFF36F8F026822B187F33F
:103FD8001188BFF36F8FF8BDD0E90A36581C46F137
:103FE8000001022871F1000127D3012B76F10001AD
:103FF800BCBF012316465D1E46F1FF3601F0C9FC21
:10400800013041F10001401946EB0101012871F12D
:10401800000139DB01F0BDFC013041F100016FF016
:104028000102401946EB0103121A4FF0FF3161EB10
:10403800030318492046FFF7C5FE236B01332363AA
:10404800236A6BB187F31188BFF36F8F236A204609
:104058009847EFF31187102383F31288BFF36F8F0C
:1040680054F8185FA542B2D0002DB0D0284601F010
:10407800F8FB0023AB6787F31188BFF36F8F2846DF
:10408800BDE8F84001F0C5BB6FF001024FF0FF3307
:10409800CFE700BFC13F00082DE9F04105461C46A7
:1040A80090461F46EFF31186102383F31288BFF35F
:1040B8006F8FB4F1FF3F08BFB2F1FF3F05D186F320
:1040C8001188BFF36F8FBDE8F081531C74F1FF3383
:1040D80009DB012A74F10003BCBF0122002412F19C
:1040E800FF3844F1FF37284601F03AFCDDE90601C4
:1040F8000023C5E90A012B63034942463B4628468B
:10410800FFF760FEDBE700BFC13F0008014800F091
:1041180021BB00BFEB6400080CB430B589B005467C
:104128000C461C22002101A801F05FFC02238DF837
:1041380006300E4B0293059523462CB1B4F1004F7F
:1041480028BF4FF00043013B1D440DAA0C9906956A
:1041580001A8009200F00CF814B1059B00221A7017
:1041680009B0BDE8304002B0704700BFC95A000826
:104178002DE9F04F8DB043680293837815469A076E
:10418800804640F10D8100240E78002E00F00A814F
:10419800252E0BD04B1C03930134029B414630461D
:1041A80098470028C0F2F6800399EDE74E788B1CFB
:1041B800252E0393F0D00027B946BB46BBF11F0F4D
:1041C80038D8A6F12003102B0AD8DFE803F02A0913
:1041D80009300909092109090928092D09091F00B8
:1041E800A6F13003092B33D92A2E37D11BF0400F03
:1041F80055F8043B40F08280002BA7BF4BF0200B02
:104208009946C3F100094BF0280B01E04BF0010B74
:10421800039B13F8016B0393002ECFD130E04BF0D2
:10422800020B4BF0040BF3E74BF0080BF0E74BF0F5
:10423800100BEDE7BBF17F0F19D8A6F13003092B5E
:10424800D2D81BF0400F03D00A2101FB0737DFE764
:104258000A2101FB09394BF0200BD9E72E2E06D194
:104268001BF0400F40F09E804BF0400BD0E76C2EC7
:1042780031D02BD8682E36D06A2E3CD04C2E3AD06E
:10428800002F46F02003B8BF2BF04002A3F16501D0
:10429800BCBF1FFA82FB0027022901D9612B2FD14D
:1042A800073525F00705DFF8ACA2083507271BF00E
:1042B800080F66D00AEB070B56465E4563D1A4EBA0
:1042C8000A0A06EB0A02A9EB07096FE1742E9FD0D0
:1042D8007A2E9DD0D4E71BF0800F18BF4BF4007BDB
:1042E8004BF0800B94E71BF4807F18BF4BF4007BE6
:1042F8004BF4807B8CE74BF4207B89E71F4687E7EC
:10430800A6F16301122900F2F080DFE811F0130032
:104318004F00EE00EE00EE00EE004F00EE00EE0063
:10432800EE00EE00EE00FE00E900EE00EE001B00DD
:10433800EE00AF0055F8043B8DF8183001270DF159
:10434800180AB4E755F804AB834BBAF1000F08BF5D
:104358009A461BF0400F14BF39464FF0FF315046C4
:1043680001F04BFB0746A2E7029B414620209847F5
:1043780000280FDB013EB742F6D34C44A41BB146DC
:1043880098E74E46F7E716F8010B029B4146984717
:10439800002892DA98F8023043F0040388F80230D3
:1043A8004FF0FF3420460DB0BDE8F08F1BF0800FB2
:1043B80034D01BF4007F2CD0073525F00705AA461A
:1043C80069685AF8080B2BF010050029ADB237DAE6
:1043D800404261EB410145F480650DF1180B0A2359
:1043E8005A4601F016FBA0EB0B0301936B0662D54E
:1043F800019B25F001019F4289B240F3A180002E64
:1044080000F0998015F0100240F09C80BB460D46E4
:1044180023E0AA465AF8040BC117D4E7AA461BF4AE
:10442800807F5AF8041B01D10846F5E71BF4007F8A
:1044380015BF48B208B241F3C01141F3C031C2E719
:1044480050EA0103C9D11BF0400FC6D0002FC4D1D8
:104458002BF0110295B2BB46019740F2064115EACE
:1044680001021CBF0BF1010B00222CE02BF0100203
:104478001FFA82FB0A231BF0800C49D01BF4007141
:104488001DBF073525F00705AA46AA461ABF5AF8E0
:10449800080B69685AF8040B50EA010545D12BF05E
:1044A80016051BF0400FADB242D0002F40D12BF0C3
:1044B800170295B2019715F0100248D0019B002E03
:1044C80042D103F1010B29075AD4EB0706D5D94588
:1044D8006FDD0199A9EB0B035F18CB465B4649E0FA
:1044E8004BF0100B10237826C5E7782B04D1C6F1C2
:1044F800780343F01003BEE7029B41462520984706
:104508000028FFF647AF023447E608230026B2E743
:10451800AA461BF480715AF8040BBDD01BF4007135
:104528001ABFC0B2614680B2B6E72BF0060295B258
:104538000DF1180B54E725F01105ADB2BB468CE719
:104548000D46B8E73B460D4603F1020BBBE7DDF825
:1045580004B082E73065000829650008CDE9043217
:104568004146029B202098470028FFF613AF049B82
:10457800059A01339945F1DCA4EB0B01CC189B4655
:104588000AB3029B4146302098470028FFF602AF45
:104598008EB901342744019B391B994224DC1D46FE
:1045A8005DBB019AA9EB0B09224455461446914478
:1045B80035E0019F92E7023441463046029B984716
:1045C8000028E7DAE6E640F206410D42E2D015F0AF
:1045D800020F14BF2B20202015F4806F04F1010472
:1045E800414618BF2D20E9E7029B414630209847F5
:1045F800002804F10104CEDACCE606AB013D4146C1
:10460800585D029B98470028CADAC3E6029B4146D8
:1046180020209847002804F10104FFF6BBAEA9EB5F
:104628000403002BF2DCBFE57047F0B59DF8146079
:104638000546014418468D4200D1F0BD15F8013BEE
:10464800584008235EB100F001075C1E400897B18E
:1046580082EA0003D8B22346002CF4D1EBE710F02D
:10466800800F4FEA4000C0B203F1FF3318BF50403B
:10467800002BF4D1DFE72346002CE3D1DBE700EB86
:10468800C100408840087047F8B50346FFF7F7FFB8
:10469800B0FA80F0C0F11F0003EB800CCA00DCF810
:1046A8001060171D0C4606328DB256B9012101FA69
:1046B80000F0D9680143D960CCF81040DD539D5211
:1046C800F8BDF1000431585AD85303EBC0009E528C
:1046D800C5805D52F4E7043A2DE9F041CC1D114440
:1046E80024F0070421F007010E1BF708B7FA87F238
:1046F800C2F12405AD004FF000080735C2F12002D1
:10470800ED0804604146A760C4F80C80920004F1EB
:10471800100001F06AF96B0043F00103638004EBB9
:10472800C5027B1B5900A4F800805180A21924F807
:104738003550A2F80280A35304EBC70329465A88D0
:1047480042F001025A802046BDE8F041FFF79CBFC5
:10475800002070470FB407B504A951F8040B019164
:10476800FCF7B2FA03B05DF804EB04B07047704789
:10477800012801D1EFF30583FEF790BC01460068DC
:10478800FFF7F6BF08B5FCF7F9FABDE80840FCF7F3
:1047980019BB00210120FFF7EBBF61B662B680F3B9
:1047A8001188BFF36F8F704772B6002383F31188A7
:1047B800BFF36F8FBFF34F8F30BF62B6BFF36F8FFA
:1047C8007047202809D9B0F1004F08D80138B0FA4D
:1047D80080F0C0F11F0040007047082070473E205D
:1047E800704708B5FCF7DCFE002008BD08B50622B6
:1047F80001210020FCF720FF002211460620FCF7CB
:10480800D3FC012108460722FCF716FF00221146B7
:104818000720FCF7C9FC082201210220FCF70CFF45
:10482800002211460820FCF7BFFC092201210320C1
:10483800FCF702FF002211460920FCF7B5FC0A220A
:1048480001210420FCF7F8FE002211460A20FCF79B
:10485800ABFC052108461622FCF7EEFE00221146A5
:104868001620FCF7A1FC292206210A20FCF7E4FE09
:10487800002211462920FCF797FC002008BD0120E2
:104888008840704700F00302043292000F239340DF
:1048980043EA900010B500F003039B0003F1804346
:1048A80003F58033020C9C6892FAA2F2B2FA82F203
:1048B80002F00F0224EA104091400143996010BDB4
:1048C80008B5002212201146FCF76EFCBDE808402E
:1048D8001220FCF75BBCD0E92432C0F898205B6852
:1048E8001A68936823F0004323F0170343F0040386
:1048F8009360704710B403460838BFF35B8F50E8E5
:10490800002F511C40E80014002CF8D1BFF35B8F36
:1049180012B910BCFFF7DFBF6FF00F0210BC9A6529
:10492800704738B58368DA07044612D40123036058
:10493800836823F0004323F0170343F001038360E7
:104948000A252368DB0704D4642000F0BEFE013D7D
:10495800F7D138BD8368DB0718D5836859070AD5AE
:10496800836823F0004323F0170343F010038360A8
:1049780083685A07FCD4836823F0004323F01703A5
:1049880043F0020383608368DB07FCD470474FF071
:10499800B0431868C0F3802070470B68A3F1480241
:1049A8001C2A82B00ED803F1B04348681A68024343
:1049B8001A600B6803F1B04300201B680193019B48
:1049C80002B070476FF08500FAE70B68A3F1480260
:1049D8001C2A9FBF03F1B04349681A688A439ABFEB
:1049E80000201A606FF085007047092809D840F246
:1049F8005E33C34013F0010F14BF00206FF0850031
:104A080070476FF08500704710B50868FFF7EDFF35
:104A180000281CDB4B68FF2B18D0DAB202F1B04239
:104A2800C3F342341068C3F3042304FA03F320EAFF
:104A3800030313604A68D1B201F1B041C2F30243E3
:104A48000868C2F30422934003430B60002010BDA2
:104A5800086808B5A0F148031C2B08D800F1B0403D
:104A68004B680268934314BF0120022008BDFFF77A
:104A7800BCFF002814BF01200220F7E770477047E9
:104A880043685B681B690B600020704743685B687C
:104A9800586942400A4042405A61002070474368C2
:104AA8005B6800209961704743685B6800209962E1
:104AB800704743685A6853694B40536100207047F8
:104AC80010B503699868F8B1884219D1DC6808689C
:104AD8009860A14200D1D860002008602AB19A6885
:104AE8000A60DA68996002B9D960002010E0814252
:104AF80006D108682060D8688142EDD1DC60EBE718
:104B0800044600680028F2D1002AE8D16FF01500A9
:104B180010BDF0B544680120676888401E46C2F39E
:104B2800801327EA00078B403B43636090FAA0F7A5
:104B3800B7FA87F7D4F808C04FF0030E7F000EFAD3
:104B480007F72CEA070C90FAA0F7B7FA87F7C2F331
:104B5800C1137F00BB4043EA0C03A36090FAA0F3A3
:104B6800B3FA83F3E7685B000EFA03F327EA030757
:104B780090FAA0F3B3FA83F302F030055B00C2F3B6
:104B880041229A403A43202DE26016D107292BD8BA
:104B980090FAA0F3226A2BB3B3FA83F39B000F2198
:104BA80001FA03F322EA030290FAA0F3B3FA83F3BB
:104BB8009B0006FA03F31343236290FAA0F3B3FAB7
:104BC80083F3226890FAA0F05B000321B0FA80F02A
:104BD8002D0901FA03F3400022EA030385401D432F
:104BE8002560F0BD2B46D9E7030A616A93FAA3F260
:104BF80082B1B2FA82F292000F2793FAA3F3B3FAC2
:104C080083F307FA02F29B0021EA02029E40164350
:104C18006662D2E72A46EEE7F8B512F4003C066968
:104C28000C46134627D091071ED55A0740F18180BC
:104C38005022DF0603F4403518D542F4007225B13E
:104C4800316921FA04F7FF0746D51F03416869D582
:104C580049680123A3408B61406800232146FFF780
:104C680058FF002D4CD114E01022E2E79906E6D552
:104C780042F48062E3E7D70302F4403520D5DA0630
:104C880012D5002D46D12B464FF400724068FFF72D
:104C980040FF336923FA04F2D20731D50122A2403A
:104CA80023EA020333612BE013F0200704D04DBB45
:104CB8002B464FF48062E9E7B5B92B462A46E5E76B
:104CC80015B92B463022E1E7316921FA04F212F0D6
:104CD800010F4FF030020ED10127A740394331614F
:104CE800BCF1000FB1D106E0316921FA04F212F0EB
:104CF8000102F1D03A46406800232146FFF709FF38
:104D08000020F8BD316921FA04F212F0010F4FF4C6
:104D18008062E0E7316921FA04F212F0010F4FF4E2
:104D28000072D8E75F0341BF01234968A3408B6243
:104D380092E76FF08500E4E770B50B468968054691
:104D480011B15E680C6801B970BD8A682A4002D04A
:104D58004B68304698471CB1236821461C46F2E749
:104D68002346FAE7F8B51F46044640680E4615463E
:104D7800FFF7CFFE112F08D1012303FA06F6636867
:104D88005B682A054CBF9E619E620020F8BD43689F
:104D98000169DB681A6822F002021A601A6822F0B8
:104DA80004021A601A6822F020021A601A6822F0B7
:104DB80010021A601A6822F040021A6091F84D2019
:104DC8001AB91A6822F080021A607047C3681A6814
:104DD80042F020021A601A6842F010021A601A683B
:104DE80042F040021A601A6842F080021A60704766
:104DF80038B543680569DC68FFF7C9FF6368DB01FC
:104E080042BF636823F08073636095F84D301BB927
:104E1800236823F0010323602846BDE83840FEF7E5
:104E280047BB10B504694368626CDB688AB19A694C
:104E3800920742BFA26C12789A629A69510742BFE0
:104E4800A26C596A1170A26C0132A264626C013AB8
:104E580062649A69D20613D49A6991061BD49A6936
:104E6800520602D49A69110614D5226C127A920756
:104E78000CD4FFF78CFF2046BDE81040FEF718BBA6
:104E8800DA6942F01002DA610122A2635A6842F438
:104E980080425A6010BDDA6942F02002DA615A682D
:104EA80022F080725A60BDE81040FFF7A1BF436846
:104EB8000169DB689A69920507D5DA6942F40072DC
:104EC800DA6101234B63FFF793BF9A69D20506D5D0
:104ED800DA6942F48072DA610123CB63F3E7704741
:104EE8002DE9F04F89B003AF87E80E009DF81490C4
:104EF800BDF84CA029F0060305468DF81F3016466C
:104F0800049B69682C69D1F80C800399FF2B82BF38
:104F1800FF2304939DF81430049895BF129A03F068
:104F2800FD034B460DF11F028DF8143013F00103F9
:104F3800C4E9110133D14FF0010BC4E90E33C4F8B1
:104F480030B027642846009339465346FDF752F897
:104F58006868FFF73BFFD8F8003043F00203C8F851
:104F6800003041F2883200232046FEF7D5FA50B1CE
:104F78002846FFF73DFF4FF0FF324FF0FF33204642
:104F8800FEF7CAFA5846D4E90D21E36B00293AD155
:104F9800A3BB8ABB00283DD06FF0040044E0002387
:104FA800C4E90C33C4E90E334FF480632764284600
:104FB800009339465346FDF71DF86868FFF706FF6A
:104FC800D8F8003043F00403C8F8003041F28832C2
:104FD80000232046FEF7A0FA50B12846FFF708FF45
:104FE8004FF0FF324FF0FF332046FEF795FA0120CD
:104FF800D4E90D21E36BC9E76363CDE702B16163CF
:105008000023E363C8E7002102B16163A163002BB9
:10501800F6D1C1E7049A039BB61A1344CDE90336C7
:10502800002E7FF46DAF304609B0BDE8F08F0369FC
:1050380093F84C201AB11B6A0B60002070476FF080
:105048000400704708B5002211462020FCF7ACF890
:105058002020FCF79BF8002221201146FCF7A4F839
:10506800BDE808402120FCF791B82DE9F7439846A0
:105078000B7A066943F0040315460B7207460C4683
:105088000B460122AA420AD906F110094FF0FF3255
:105098004FF0FF334846FEF73FFA002620E00AD2D9
:1050A800197A187D81EA000C1CF0010F01D0400725
:1050B8001FD589071DD401320C33D2B2E2E7012D86
:1050C80014BF04F114030023CDE90038384694E8EE
:1050D8000E00FFF705FF061E04DB013D0C34EDB2A0
:1050E800002DECD14846FEF7E3F9304603B0BDE8A1
:1050F800F0836FF01506F8E742680369D26883F811
:105108004E1019B9136823F440131360704730B573
:10511800036813600579046804EBC504A34202D34D
:105128006FF0010030BD5C798C4201D00833F0E7A4
:105138000020F7E74368C1F34B101B6801F01F011B
:10514800C05801238B40034214BF0123002313706E
:105158000020704710B54368C1F34B101A6801F07E
:105168001F01845801238B4023438350002010BD26
:1051780010B54368C1F34B14186801F01F01235898
:1051880001228A4023EA02032350002010BD38B5CB
:1051980004460D46FFF7DEFF29462046FFF7E8FFE5
:1051A800002038BD38B5046904F1240000F0E2FAA3
:1051B800206800F099FAA8B1237A012503F01F03AB
:1051C8001422002104F110009D4000F00EFC04F1AF
:1051D8003803A3610223E3610C23656184F820305E
:1051E800002038BD6FF01200FBE710B51F291446E8
:1051F8000369426818D11968B3F93A30896808898F
:10520800584313684FF47A72584340F6FF7390FB83
:10521800F3F00023C117FBF785FA4FF47A735A436A
:1052280020606260002010BD6FF08500FBE738B594
:10523800046904F1240000F09DFA206810B96FF0A9
:10524800120038BD00F050FA0028F8D0237A012562
:1052580003F01F031422002104F110009D4000F008
:10526800C4FB04F13803A3610223E3610C236561E5
:1052780084F820300020E4E710B51F29144603699C
:10528800426815D1B3F93A30ABB111685268088851
:1052980050434FF47A7290FBF3F00023C117FBF7E9
:1052A80041FA4FF47A735A4320606260002010BDBF
:1052B8006FF08500FBE76FF03C00F8E738B504694C
:1052C80004F1240000F056FA206800F00DFAA8B1A5
:1052D800237A012503F01F031422002104F1100092
:1052E8009D4000F082FB04F13803A3610223E361CF
:1052F8000C23656184F82030002038BD6FF012005F
:10530800FBE7B0F5805F07D0B0F1805F09D10029D5
:1053180014BF012002207047002914BF0320042075
:105328007047002914BF02200320704743681B6898
:10533800D869DA69D107DA69C0F3C00048BF40F01C
:1053480002009207DA6948BF40F004005107DA69A1
:1053580048BF40F02000D20542BF4FF4807240F0B1
:1053680008001A62C10744BF08221A62820744BFB4
:1053780001221A62410744BF02221A62820644BF10
:1053880004221A62704710B543681B681020DA6956
:105398001206FCD5EFF3118280F31288BFF36F8FEA
:1053A800DC69240604D482F31188BFF36F8FEEE71B
:1053B800996282F31188BFF36F8F10BD43681B6831
:1053C800DA69100744BF08221A62DA69920643BFF5
:1053D8005B6A0B7000204FF0FF30704710B5026910
:1053E800526812680A6042681268126802F4C06261
:1053F800B2F5806F04460B4633D0A2F5C060424236
:1054080042411A7162681268526802F44052B2F559
:10541800805F28D0B2F5405F27D0002A0CBF012258
:1054280003225A71626812681068116800F010202F
:1054380001F4C061FFF765FF9871626812689268AD
:1054480002F44072A2F540714A424A41DA71616839
:105458000968896811F4804F18BF0322DA710020A7
:1054680010BD0222CDE70022DBE70222D9E72DE9B1
:10547800F0410A790369D0F804805E68012A04467D
:105488000D4611D0901E47424741BF0269794046F8
:10549800FDF7D4F8AB79022B09D0042B31D0131EB9
:1054A80018BF01231B0306E04FF4C067EEE7B2FA0A
:1054B80082F35B091B07EA79D8F80010012A14BFA8
:1054C8004FF0000C4FF4407CAE421DD10A6822F028
:1054D800805222F4B0523A431A430A604B6823F4CC
:1054E800405303434B6063681A68936823F440731E
:1054F80043EA0C03936031682046BDE8F041FDF7AC
:10550800D1B84FF48053D6E7D1F800E00EF4C06E5E
:1055180077451FBFD1F800E02EF4C06E4EEA0707AA
:105528000F6061680F68796801F4405188421FBFB5
:10553800796821F44051014379606168086801681D
:1055480001F010218B421FBF016821F010210B438D
:105558000360636819688B6803F440739C451FBF38
:105568008B6823F4407343EA0C038B6063681B6801
:105578009968490405D5032A09D09A6822F480421B
:1055880004E0032A03D19A6842F480429A602968A9
:105598003368994204D02046FDF784F82B683360BD
:1055A800BDE8F0811FB540BA0023ADF80C000093A8
:1055B8003122FF23022103A8FFF737F805B05DF871
:1055C80004FB1FB5CDE9011202228DF80C209DF8CD
:1055D8000C20816842F002028DF80C208C680122B0
:1055E80001A9A04704B010BD13B553BA044649BA7F
:1055F8001046ADF80010ADF80230FFF7D3FFA388CE
:105608008DF80400052220686946FFF7DAFF02B02A
:1056180010BDFEF7CBBA07B549BA8388ADF80410B8
:10562800022201A90068FFF7CCFF03B05DF804FB74
:1056380008B5037A012B09D143F2E061FFF7EBFFCC
:10564800BDE808400A200021FFF7E3BF08BD08B500
:1056580043F2F661FFF7DFFFBDE80840C8200021EC
:10566800FFF7D7BF1FB5CDE9011203228DF80C2033
:105678009DF80C20816842F002028DF80C208C689D
:10568800012201A9A04704B010BD70B50446154613
:105698001E46FFF7C0FF01200021FFF7BAFFA388CD
:1056A800206832462946BDE87040FFF7DBBF10B5D9
:1056B80043F686714068FFF7AEFF0021044641F2C9
:1056C8008830FFF7A6FF204610BD38B5044648B11C
:1056D800FDF74EFA302305465C43FDF749FA431BB4
:1056E800A342FAD338BD704740B1C368587810F068
:1056F80001001EBF1878B0FA80F040097047EFF338
:105708001183102383F31288BFF36F8FFEE708B568
:10571800FFF7F5FF10B5D0E9003433B90020E2688F
:10572800537843F00103537010BD20469847002872
:10573800F4D00028B8BF4042E368FF28A8BFFF2084
:105748001870ECE700F051B900F041B9704708B59E
:105758001024EFF3118384F31288BFF36F8FFFF7E0
:1057680023F8F6E790F90E308B4201D0FEF7B2B875
:105778000020704703460020C3E90200C3E9003354
:1057880070473AB18A4205D3C0E90212C0E9000065
:10579800002070476FF015007047FEF7FBB8D0E99E
:1057A800003213605A600023C0E90033704708B51F
:1057B800FFF7F5FF437B23F0020343730023836065
:1057C80008BD38B504460D46FDF718FF637B43F066
:1057D80002036373E5B1A5602B689D4209D16B682C
:1057E800C4E900531C606C6012E06A689A42F6D003
:1057F8001B68002BF3D094F90E2093F90E108A42FF
:10580800F3D09142F1DD5A68C4E9003214605C605B
:1058180038BD10B5EFF31184102383F31288BFF35A
:105828006F8FFDF715FF84F31188BFF36F8F10BDDD
:1058380010B50446183000F093F8EFF311811023E7
:1058480083F31288BFF36F8F627B1A4004D081F311
:105858001188BFF36F8F10BD2046BDE81040FDF7DB
:105868003DBF08B5EFF31181102282F31288BFF310
:105878006F8F83680BB1FFF79AFF81F31188BFF32D
:105888006F8F08BD38B50446EFF31185102383F3F5
:105898001288BFF36F8F437B13F0280F0BD18368F7
:1058A8000BB1FFF784FF637B51B903F0FB0363730C
:1058B8002046FDF7CDFE85F31188BFF36F8F38BD05
:1058C80003F0EB03F3E701211838FFF7DBBF08B556
:1058D8000346EFF31181102282F31288BFF36F8F12
:1058E8000068834207D008B1FFF761FF81F3118890
:1058F800BFF36F8F08BD0020F8E7C117633008B504
:105908004FF064024FF0000341F10001FAF75AFF2B
:10591800C117FEF707F96423584308BDEFF3118157
:10592800102282F31288BFF36F8F027BD2070CD547
:1059380081F31188BFF36F8F002383F31188BFF3BE
:105948006F8F0423184602DF7047437B1B0704D57B
:1059580081F31188BFF36F8F70470122FDF7BEBE38
:1059680010B5EFF31184102282F31288BFF36F8F02
:1059780003683BB1FEF7EAF9002084F31188BFF30E
:105988006F8F10BD6FF01500F7E708B5FEF7FCFA4A
:1059980008BDFEF7F9BA10B50446FFF7E1FFA8B94C
:1059A800636A0BB12046984704F11800FFF78FFF90
:1059B80060B1FFF72EFFEFF31180102383F31288F5
:1059C800BFF36F8FBDE81040FEF702B810BD0A4460
:1059D800914200F1FF3300D1704710B511F8014B27
:1059E80003F8014F9142F9D110BD02440346934296
:1059F80000D1704703F8011BF9E710B502460144CE
:105A08008A42134603D01C780132002CF8D1181AA8
:105A180010BDF0B5C3F137070446FFB203F01F030A
:105A28001046082BE6B233D0102B3ED06508A408E8
:105A380044EA817445EAC1752D194FEA910242EB97
:105A48005102290941EA02716D1842EB1212290A22
:105A580041EA02616D1842EB1222290C41EA024127
:105A68006D1842EB1242AD1842F10002EC0844EA0C
:105A78004274D10804EB8402A6EB4205EDB2092D6D
:105A88000CD90134A5F10A0541F10001EDB212E08B
:105A9800E40844EA417406F00705C908303554EAB9
:105AA800010200F8015BBCD1F0BD240944EA01748D
:105AB80006F00F050909092D84BFED19EDB2EDE7D0
:105AC800D1E9043293421EBF5A1C0A61187070470C
